:020000040800F2
:1000000010050020D9000008D1230008371F000880
:1000100000000000000000000000000000000000E0
:10002000000000000000000000000000D5230008D0
:100030000000000000000000D3230008D7230008C0
:10004000EB000008EB000008EB000008EB000008E4
:10005000EB000008EB000008EB000008EB000008D4
:10006000EB000008EB000008EB000008EB000008C4
:10007000EB000008EB000008EB000008EB000008B4
:10008000EB000008EB000008EB000008EB000008A4
:10009000EB000008EB000008EB000008EB00000894
:1000A000EB000008EB000008EB000008EB00000884
:1000B000EB000008EB000008EB000008EB00000874
:1000C0000448854600F0A8FB00480047653D00084D
:1000D000C046C04610050020044880470448004739
:1000E000FEE7FEE7FEE7FEE7FEE7FEE7572400082F
:1000F000C100000830B50B46014600202022012433
:1001000009E00D46D5409D4205D31D469540491B4B
:100110002546954040191546521E002DF1DC30BD94
:10012000F0B51FB40646002082B005464024019178
:1001300000901BE0019922460F46304600F020F85F
:10014000049A059B801A994110D3104619462246FD
:1001500000F06AFA361A8F410197224601200021E9
:10016000009F00F061FA38184D4100902046641E4F
:100170000028DFDC019B00982946324607B0F0BD1D
:1001800010B5202A04DB0846203AD040002110BDDB
:100190000B46D340D0402024A21A91400843194670
:1001A00010BD03460B439B0703D009E008C9121F8B
:1001B00008C0042AFAD203E00B780370401C491CE3
:1001C000521EF9D27047D2B201E00270401C491EA3
:1001D000FBD270470022F6E710B513460A460446E4
:1001E0001946FFF7F0FF204610BD0000F0B50746A6
:1001F0000846584087B0C00F049048000E4659008A
:1002000040084908BC1A884105D2384631461E4686
:1002100017460B4602465800400810434DD0300D9B
:10022000039040055900400D490D0590401A029079
:10023000402873DA18030121000B090508430190D7
:1002400004980092002806D01146019A49420020E5
:10025000904100910190029840210A1A019900985A
:1002600000F0E2F905460C466B4607CB00F0ECF9CE
:10027000C0197141039A0E0D0023D71756401A4634
:100280007A40164344D0049A002A2DD0029A012ABB
:10029000039A15DC1205C01A914101263605001C8F
:1002A0007141D20F059ED2070093019202962A4611
:1002B000234600F02AFA07B0F0BD38463146FAE787
:1002C0001605234A0F46B218C01AB7410121090585
:1002D000001C4F4100187F41114618187941E20F68
:1002E00010436D19644113E0E2076D08154364087B
:1002F000C2071443039A01261205C01A914136051C
:10030000001C7141CE07400830434908C0185141D4
:100310002A46234600F0ECF9CDE7FFE704980122D6
:100320004000C117121A00238B4104983146C417AC
:10033000381AA141EEE730B40124E407634030BC31
:1003400054E730B40124E407614030BC4EE70000BC
:100350000000E0FFF0B51FB488B00B9909980024A5
:1003600048400999C00F490049080991C0070B99F5
:100370000090490049080B9109990898A64608433E
:100380001CD00B990A98084318D009980124400002
:10039000420D4800410D099824050003000B20433D
:1003A00009900B980003000B20430B9050181C4938
:1003B0004018002201901446104605E00020014636
:1003C0000DB0F0BD032801DA034600E003239C468C
:1003D000C11A0AAE0AE05F0008ADED5B4F00F75BA3
:1003E0007D430027AA187C41491C5B1E6145F2DD54
:1003F000410004AB5A522104120C0A43240C401C45
:100400000828DFDB01980290009970460191009066
:10041000059B049A0799069800F077F9D0E7000049
:100420000DFCFFFFF0B50C465C4085B0E40FE4071F
:1004300003944C000026640859009446490802467B
:100440000296224321D062460A431ED06200570D15
:100450004A000E032303550D012402462C492405AE
:10046000781B1B0B360B4018234326436146009034
:100470001C46501AB44103D30098401C009002E07F
:10048000921800985B41002803DA0020014605B06D
:10049000F0BD0020012109050746864611E06446AB
:1004A0001D46141BB54106D36546521BB341744625
:1004B00007430C43A646CD07400849082843921835
:1004C0005B4105460D43EAD11046184313D0604600
:1004D000194650407140084306D06046101AB34197
:1004E00006D20122002306E000220123DB0702E0FE
:1004F0000122D2435310009874460105381C614113
:10050000029C039D0019694100F0F2F8BFE700006A
:10051000FD0300000EB5C217C10F5040CA074018B6
:100520000021054B0293019200910A460B4600F010
:10053000ECF803B000BD0000330400000EB505491F
:100540000291002100910A460B46019100F0DDF86E
:1005500003B000BD3304000070B5CD0F4A0009039D
:100560000123090B1B0519430B4BED070024520D0A
:100570009A4201DA002070BD074B34339A4203DC03
:100580009A1AFFF7FDFD02E00449511888402C43F8
:10059000F1D0404270BD0000FF030000CDFBFFFF23
:1005A000C20FD207400040080BD0C10D0723DB016A
:1005B000C91840020905400A1143C2084007114307
:1005C000704700200146704710B5002904DB012464
:1005D000E40740428C412146002B04DB1C460123EA
:1005E000DB075242A3418B4200D1824210BD000082
:1005F000CB0FDB07490010B5490802460A4307D074
:100600000A0D07240903E401090B121B002A01DC6F
:10061000002010BDC900440F0C43C100E018D205F2
:10062000801800F024F810BD10B5202A04DB014624
:10063000203A9140002010BD914020239C1A03468F
:10064000E3401943904010BD10B5202A06DBCB17BC
:100650000846203A1041C1170B4306E00B461341F0
:10066000D0402024A21A91400843194610BD002909
:1006700004DA401C490001D140084000704770B4C2
:100680000024050C05D11024000402D1002921D03A
:100690001124050E01D100020834050F01D100011B
:1006A000241D850F01D18000A41C002801DB40001F
:1006B000641C002908D020252E1B0D46F540A140C2
:1006C00000D001212943084301061B1B000ADB1D42
:1006D00002D5002070BC7047DB051818801800296F
:1006E000F8DA401C4900F5D170BC40084000704762
:1006F00010B5002B08DA0024401C614192185B41C0
:100700001A4301D14008400010BDF0B51FB482B0BB
:1007100005460C0003D0084602F0BCF802E002F0E7
:10072000B9F820300246009021462846FFF77CFFAA
:10073000049B059A04460F4618431143084314D0FE
:10074000184610431BD0009840210A1A18460599F4
:10075000FFF716FD05460E46009A05990498FFF727
:1007600063FF084305D0012004E02046394607B066
:10077000F0BD0020C11705430E432C4337430099B9
:100780000E986305401A7905E40A00220C43FD0A1D
:100790000A3002D500200146E9E701051019694138
:1007A0000C9C0D9D00196941FFF7A2FFDFE70000D7
:1007B0004A0009030123090B1B0519430A4B10B515
:1007C000520D9A4202DA0020014610BD064B343326
:1007D0009A4203DC9A1AFFF7D3FC10BD034BD218E0
:1007E000FFF722FF10BD0000FF030000CDFBFFFF5D
:1007F00010B5002904DB0124E40740428C41214666
:10080000002B04DB1C460123DB075242A341994223
:1008100000D1904210BD0000064C0125064E05E0B7
:10082000E36807CC2B430C3C98471034B442F7D311
:10083000FFF74AFC9C400008BC40000870470000DD
:1008400078B503460022E2E0012696400C68344069
:10085000002C7DD04D68012D08D04D68022D05D0AB
:100860004D68112D02D04D68122D18D19868560090
:100870000325B5400646AE4330465600CD68B54028
:10088000284398605868012595400646AE43304697
:1008900010264D6835402D09954028435860D8688A
:1008A00056000325B5400646AE43304656008D68D7
:1008B000B5402843D8604D68022D02D04D68122DF6
:1008C00015D1D508AE001D462035A8595507EE0EA6
:1008D0000F25B5400646AE4330465607F60E0D6965
:1008E000B5402843D508AD001E4620367051186823
:1008F00056000325B5400646AE4330460D79AD0798
:10090000AD0F5600B54028431860012636074D68E4
:100910003540B5427AD100BF404DAD69012635431F
:100920003E4EB5613546AD69ED07ED0F009500BF50
:1009300000BF3B4D9608B600A85995072E0F0F250E
:10094000B5400646AE4330460925ED06AB4200E011
:100950005CE001D1002514E0324DAB4201D101250C
:100960000FE0314DAB4201D102250AE02F4DAB42E1
:1009700001D1032505E02E4DAB4201D1042500E055
:1009800005259607360FB5402843254D9608B60035
:10099000A851284D28680546A54328460126360457
:1009A0004D683540B54202D1054625432846214DC4
:1009B000286068680546A5432846012676044D68E8
:1009C0003540B54202D1054625432846194D686099
:1009D000A8680546A5432846012636054D683540DA
:1009E000B54202D1054625432846124DA860E86865
:1009F0000546A5432846012676054D683540B54293
:100A000002D10546254328460A4DE860521C0D6870
:100A1000D540002D00D017E778BD0000001002403F
:100A2000080001400004004800080048000C00488D
:100A30000010004800040140002A01D0816100E05C
:100A40008162704701480068704700001C00002068
:100A500002464120805C20282FD100BF4020805CCE
:100A6000012801D10220704701234020835400BF98
:100A70002423412083541068006840084000136814
:100A800018601068006801231B03984313681860FE
:100A90001068006808431368186010680068012334
:100AA00018431368186020234120835400BF00239B
:100AB0004020835400BF0020D5E70220D3E710B5C3
:100AC00002460B464120805C20282ED100BF4020EA
:100AD000805C012801D1022010BD012440208454F3
:100AE00000BF24244120845410680068400840005E
:100AF00014682060106801680F2424020846A0438F
:100B00000146180201431068016010680068012462
:100B100020431468206020244120845400BF002416
:100B20004020845400BF0020D6E70220D4E7000014
:100B300010B50446002C01D1012010BD4120005DFC
:100B4000002805D1002140200155204600F098FAE8
:100B50002421412001552068006840084000216898
:100B600008600F21090660688843216808612068D1
:100B700080680121C903884321688860E0680128F2
:100B800006D10121C903A06808432168886005E0F7
:100B900021218902A068084321688860E068022852
:100BA00002D18002216848602068406814490843E7
:100BB000216848602068C0680121C9038843216812
:100BC000C860616920690843A16909020843216876
:100BD000C860216AE06908432168086020680068ED
:100BE0000121084321680860002060642021412021
:100BF00001550020206300214220015500209CE780
:100C000000800002FFB581B0044616461F46412011
:100C1000005D202877D100BF4020005D012802D16F
:100C2000022005B0F0BD01214020015500BFFFF7B3
:100C300009FF054619230122D1032046009501F042
:100C400041FA002801D00120EBE722214120015583
:100C50001021422001550020606466626785606350
:100C6000608DFF280BD9FF2020853F480090208D04
:100C7000C2B20B052046029901F008FA0BE0608D24
:100C8000208539480090208DC2B201235B062046A2
:100C9000029901F0FBF943E02A4620460A9901F047
:100CA0003DFA002801D00120BBE72068406A616A54
:100CB0000870606A401C6062208D401E2085608D37
:100CC000401E6085608D00282AD0208D002827D105
:100CD00000950022802120460A9B01F0F3F90028AC
:100CE00001D001209DE7608DFF280DD9FF202085D0
:100CF00000200090208DC2B201231B0620460299DD
:100D000001F0C4F90CE02CE0608D208500200090FB
:100D1000208DC2B201235B062046029901F0B6F98C
:100D2000608D0028B8D12A4620460A9901F04EFA73
:100D3000002801D0012074E720202168C8612068C4
:100D400040680A4908402168486020214120015537
:100D500000214220015500BF4020015500BF002066
:100D60005FE702205DE700000024008000E800FE4D
:100D7000FFB581B0044616461F464120005D20287D
:100D800077D100BF4020005D012802D1022005B0CC
:100D9000F0BD01214020015500BFFFF753FE05467D
:100DA00019230122D1032046009501F08BF9002878
:100DB00001D00120EBE721214120015510214220E3
:100DC000015500206064666267856063608DFF285E
:100DD0000BD9FF2020853F480090208DC2B20B0523
:100DE0002046029901F052F90BE0608D20853948C8
:100DF0000090208DC2B201235B062046029901F0CB
:100E000045F943E02A4620460A9901F00CFA0028E9
:100E100001D00120BBE7606A007821688862606ABF
:100E2000401C6062608D401E6085208D401E2085C4
:100E3000608D00282AD0208D002827D1009500221F
:100E4000802120460A9B01F03DF9002801D00120B5
:100E50009DE7608DFF280DD9FF20208500200090A0
:100E6000208DC2B201231B062046029901F00EF923
:100E70000CE02CE0608D208500200090208DC2B217
:100E800001235B062046029901F000F9608D0028DD
:100E9000B8D12A4620460A9901F098F9002801D0D5
:100EA000012074E720202168C861206840680A4951
:100EB000084021684860202141200155002142203E
:100EC000015500BF4020015500BF00205FE7022010
:100ED0005DE700000020008000E800FEFFB583B061
:100EE00004460C9F0E9E4120005D20287ED1002FDD
:100EF00002D00D98002805D1012040026064012035
:100F000007B0F0BD00BF4020005D012801D10220E4
:100F1000F6E701214020015500BFFFF793FD05468C
:100F200019230122D1032046009501F0CBF80028B7
:100F300001D00120E4E72121412001554021422038
:100F400001550020606467620D9860850020606331
:100F500000960195204604A90EC901F057F8002813
:100F600006D000BF00214020015500BF0120C7E787
:100F7000608DFF280CD9FF20208500200090208D57
:100F8000C2B201231B062046049901F07FF80BE052
:100F9000608D208500200090208DC2B201235B0669
:100FA0002046049901F072F800BF2A4631462046D7
:100FB00001F039F9002801D00120A1E7606A00782A
:100FC00021688862606A401C6062608D401E608596
:100FD000208D401E2085608D00282BD0208D00287C
:100FE00028D1334600228021204600E043E00095CE
:100FF00001F068F8002801D0012081E7608DFF280A
:101000000CD9FF20208500200090208DC2B2012342
:101010001B062046049901F039F80BE0608D20850D
:1010200000200090208DC2B201235B062046049967
:1010300001F02CF8608D0028B7D12A4631462046B1
:1010400001F0C4F8002801D0012059E720202168D0
:10105000C86120684068094908402168486020212B
:101060004120015500214220015500BF402001557B
:1010700000BF002044E7022042E7000000E800FE35
:1010800010B586B00446142101A8FFF7A3F81A4949
:10109000206888422DD100BF184840690121890489
:1010A00008431649486108464069012189040840FF
:1010B000009000BF00BFC0200190122002900120CC
:1010C0000390032004900120059001A90C48FFF72C
:1010D000B7FB00BF0948C06901214905084307491A
:1010E000C8610846C069012149050840009000BF59
:1010F00000BF06B010BD00000054004000100240C8
:101100000004004870B50446002C01D1012070BDD8
:1011100014482168086014482168086021686068E4
:1011200048602168A0688860FFF78CFC054606E0EF
:10113000FFF788FC401B262801D90320E7E7206839
:10114000C0680028F4D120680169E068814203D0BA
:101150002168E068086102E0044821680860002016
:10116000D5E70000CCCC000055550000AAAA00002D
:10117000014602480A68106000207047AAAA0000D1
:10118000034800680349097840180149086070471E
:101190001C0000202400002010B506480068102123
:1011A000084304490860002000F006F800F02EF81B
:1011B000002010BD0020024070B5044610480178A0
:1011C0007D20C000FEF796FF064631460D480068B8
:1011D000FEF790FF054600F091FD002801D00120A8
:1011E00070BD042C07D200222146501E00F02EF8BC
:1011F0000548046001E00120F2E70020F0E700006C
:1012000024000020280000202000002008B500BF96
:101210000D488069012108430B49886108468069AF
:10122000C007C00F009000BF00BF00BF0846C069E4
:10123000090408430449C8610846C0690904084014
:10124000009000BF00BF08BD0010024070B504460A
:101250000D4616462946204601F04CFB70BD0000A5
:10126000F8B504460026002501210904206808403D
:1012700088427AD100276048C069090308400028E5
:101280000DD100BF5C48C06908435B49C86108468E
:10129000C06909040840009000BF00BF01275748FB
:1012A0000068FF2101310840002816D1534800682A
:1012B000084352490860FFF7C5FB064606E0FFF702
:1012C000C1FB801B642801D90320F8BD4B4800688E
:1012D000FF21013108400028F1D04748006A03216E
:1012E000090208400546002D2DD060680840A8423C
:1012F00029D04148006A884305463F48006A0121D9
:10130000090408433C4908620846006A01210904AF
:1013100088433949086208460562E807C00F00287B
:1013200011D0FFF78FFB064607E0FFF78BFB801B12
:101330003349884201D90320C7E72F48006A0221B8
:1013400008400028F1D02C48006A03210902884394
:101350006168084328490862012F05D10846C06921
:10136000090488432449C86100BF2078C007C00F22
:10137000002807D02048006B80088000A16808433F
:101380001D490863022120680840022808D11A4834
:10139000006B032109048843E16808431649086388
:1013A000202120680840202807D11348006B102115
:1013B00088432169084310490863012149042068D2
:1013C0000840884207D10C48006B80218843A169FE
:1013D00008430949086301218902206808408842BE
:1013E00007D10548006B40218843616908430249E1
:1013F0000863002069E70000001002400070004010
:101400008813000070B504460D46002C01D1012060
:1014100070BD58480068C007C00FA8420ED255489A
:1014200000684008400028435249086008460068A8
:10143000C007C00FA84201D00120E9E702212068BF
:101440000840022814D1042120680840042807D14C
:1014500049484068072109028843401846494860C6
:1014600045484068F0218843A168084342494860E4
:101470002078C007C00F002847D06068012808D135
:101480003D480068012149040840002821D101207D
:10149000BEE76068022808D1374800680121490684
:1014A0000840002815D10120B2E76068032808D160
:1014B0003148406B012109040840002809D101206E
:1014C000A6E72D48006802210840002801D101202C
:1014D0009EE72948406880088000616808432649E3
:1014E0004860FFF7AFFA064607E0FFF7ABFA801B4C
:1014F0002249884201D903208AE71F4840680C210D
:101500000840616889008842EFD11A480068C00726
:10151000C00FA8420ED91748006840084000284371
:101520001449086008460068C007C00FA84201D0EF
:1015300001206DE7042120680840042808D10E48E6
:101540004068072109028843E16808430A49486066
:1015500000F032F808494968F02211400909084AA8
:10156000515CC840074908600020FFF725FE0020B5
:101570004EE70000002002400010024088130000E7
:1015800084400008280000200148006870470000DF
:101590002800002000B5FFF7F7FF0549496807223A
:1015A00012021140090A034A515CC84000BD000004
:1015B0000010024094400008F0B589B035A0014603
:1015C0000EC9C06805AC0EC4089036A001460EC90D
:1015D000C06801AC0EC4049000250024002700263A
:1015E00000200090334845680C202840002849D04E
:1015F000042804D0082805D00C2842D13EE02E480B
:10160000009042E00F2080042840800C05A90E5C69
:101610002848C06A0007000F01A90C5C0320C00322
:1016200028400121090488420AD122460023224889
:101630001946FEF775FD314601F043F907461BE0F8
:101640000320C00328400321C90388420AD122464F
:1016500000231A481946FEF763FD314601F031F9BF
:10166000074609E02246002313481946FEF758FDB5
:10167000314601F026F90746009706E00F48009032
:1016800003E000BF0C48009000BF00BF009809B005
:10169000F0BD000002030405060708090A0B0C0D43
:1016A0000E0F10100102030405060708090A0B0CAF
:1016B0000D0E0F100010024000127A00006CDC02C8
:1016C000FEB50446002C01D10120FEBD2078C007E4
:1016D000C00F002872D0FC4840680C210840042844
:1016E0000CD0F94840680840082813D1F6484068F3
:1016F000490308400121090488420BD1F2480068DF
:1017000001214904084000286BD06068002868D196
:101710000120DAE700BF6068012807D1EA480068C5
:10172000012109040843E849086031E060680028A5
:101730000ED1E5480068012109048843E2490860A8
:1017400008460068012189048843DF4908601FE0DA
:10175000606805280ED1DC4800680121890408432F
:10176000D949086008460068012109040843D649A0
:1017700008600DE0D4480068012109048843D2497B
:10178000086008460068012189048843CE49086042
:1017900000BF6068002812D0FFF754F9054606E044
:1017A000FFF750F9401B642801D903208DE7C64894
:1017B00000680121490408400028F1D011E0FFF73A
:1017C00041F9054606E0FFF73DF9401B642801D9C1
:1017D00003207AE7BC48006801214904084000283A
:1017E000F1D1022120680840022862D1B648406841
:1017F0000C21084000280CD0B34840680840082855
:101800001CD1B1484068490308400121C9038842FE
:1018100014D1AD48006802210840002804D0E068D7
:10182000012801D0012050E7A7480068F82188432B
:101830002169C9000843A44908603AE0E06800282B
:1018400020D0A1480068012108439F490860FFF7A4
:10185000F9F8054606E0FFF7F5F8401B022801D924
:10186000032032E798480068022108400028F2D09F
:1018700095480068F82188432169C90008439249C6
:10188000086016E090480068400840008E490860F3
:10189000FFF7D8F8054606E0FFF7D4F8401B02280A
:1018A00001D9032011E78848006802210840002878
:1018B000F2D1082120680840082831D1E0690028C9
:1018C00017D08148406A012108437F494862FFF7E9
:1018D000B9F8054606E0FFF7B5F8401B022801D924
:1018E0000320F2E67848406A022108400028F2D03E
:1018F00016E07548406A4008400073494862FFF7A7
:10190000A1F8054606E0FFF79DF8401B022801D923
:101910000320DAE66C48406A022108400028F2D130
:10192000042120680840042872D1002001906648F4
:10193000C0698906084000280ED100BF6248C0690E
:1019400008436149C8610846C0690904084000901D
:1019500000BF00BF012001905C480068FF210131F9
:101960000840002816D159480068084357490860C4
:10197000FFF768F8054606E0FFF764F8401B6428A7
:1019800001D90320A1E651480068FF210131084038
:101990000028F1D000BFA068012806D14A48006A9B
:1019A00001210843484908622AE0A06800280BD1B9
:1019B0004548006A4108490043480162006A042121
:1019C0008843414908621BE0A06805280CD13E48C5
:1019D000006A042108433C4908620846006A012164
:1019E0000843394908620BE03748006A4008400064
:1019F000354908620846006A042188433249086272
:101A000000BFA068002813D0FFF71CF8054608E0C7
:101A10002BE0FFF717F8401B2D49884201D903201E
:101A200053E62948006A022108400028F1D011E05D
:101A3000FFF708F8054607E0FFF704F8411B2448C4
:101A4000814201D9032040E61F48006A0221084074
:101A50000028F1D10198012806D11B48C069012155
:101A6000090788431849C86100BF10212068084051
:101A700010285FD1606901282CD11348406B0421E4
:101A80000843114948630846406B012108430E4949
:101A90004863FEF7D7FF054606E0FEF7D3FF401B7D
:101AA000022801D9032010E60748406B02210840B4
:101AB0000028F2D00448406BF8218843A169C9008E
:101AC00008430149486335E00010024000700040BF
:101AD000881300006069401D00280FD18648406BC4
:101AE00004218843844948630846406BF8218843B1
:101AF000A169C9000843804948631BE07E48406BE8
:101B0000042108437C4948630846406B4008400074
:101B10004863FEF797FF054606E0FEF793FF401B7C
:101B2000022801D90320D0E57348406B0221084008
:101B30000028F2D1202120680840202852D16E4888
:101B400040680C2108400C280AD06B4840680840C7
:101B5000082811D1684840684903084088420BD1E1
:101B60006548406B01210904084000283AD0206AEA
:101B7000012837D00120A8E5206A002819D05E4846
:101B8000406B0121090408435B494863FEF75AFF93
:101B9000054606E0FEF756FF401B022801D9032048
:101BA00093E55548406B0121090408400028F1D015
:101BB00018E05148406B0121090488434E494863AD
:101BC000FEF740FF054606E0FEF73CFF401B0228FB
:101BD00001D9032079E54848406B012109040840F8
:101BE0000028F1D1606A00284FD0434840680C219A
:101BF0000840082864D0606A022847D13E4800683F
:101C00000121090688433C490860FEF71BFF054691
:101C100006E0FEF717FF401B022801D9032054E518
:101C2000354800680121490608400028F1D100BF6D
:101C30003148C06A00090001216B08432E49C8627F
:101C4000A16AE06A08432C4949687B22D203914388
:101C500008432949486000BF084600680121090679
:101C6000084325490860FEF7EDFE054606E0FEF74D
:101C7000E9FE401B022801D9032026E51E48006822
:101C80000121490608400028F1D033E01A480068D5
:101C900001210906884318490860FEF7D3FE05466E
:101CA00006E0FEF7CFFE401B022801D903200CE519
:101CB000114800680121490608400028F1D119E0C7
:101CC000606A012800D100E50B484668C76A032016
:101CD000C0033040A16A88420AD13907090F206B3E
:101CE000814205D10F2080043040E16A884201D052
:101CF0000120EAE40020E8E40010024070B5044648
:101D00002546681E0949884201D901200CE0681E59
:101D1000074948610321081F00F0ECFD0020044939
:101D2000886107200861002070BD0000FFFFFF00F0
:101D300000E000E010B50446002C01D1012010BDE8
:101D4000A069002800D000E000BFA06F002805D1E6
:101D5000002174200155204600F02CF82420A067B3
:101D6000206800684008400021680860204600F0B4
:101D700025FC012800D1E2E7606A002802D0204655
:101D800000F06AFB206840680921C9028843216885
:101D90004860206880682A2188432168886020681C
:101DA00000680121084321680860204600F0CCFB50
:101DB000C5E7000010B586B00446142101A8FEF75F
:101DC00009FA1A49206888422ED100BF1848806954
:101DD0000121890308431649886108468069012169
:101DE00089030840009000BF00BF00BF1048406951
:101DF000C90008430E494861084640690121490469
:101E00000840009000BF00BF032040020190022064
:101E1000029000200390032004900120059001A966
:101E20000920C006FEF70CFD06B010BD00380140C9
:101E300000100240FFB583B004460D461746A06F60
:101E4000202876D1002D01D0002F02D1012007B02B
:101E5000F0BD01210903A068884208D1206900284B
:101E600005D1E807C00F002801D00120EFE700BF2F
:101E70007420005D012801D10220E8E701217420CF
:101E8000015500BF0021802001512120A067FEF7ED
:101E9000D9FD019050200753522007530121090317
:101EA000A068884205D12069002802D10026029549
:101EB00002E02E460020029000BF00217420015550
:101EC00000BF21E006980090002280212046019B5F
:101ED00000F06CFC002801D00320B8E7002E09D1E7
:101EE00002980088C005C00D216808850298801CF2
:101EF000029003E0307821680885761C5220005B50
:101F0000401E81B2522001535220005B0028D9D1DB
:101F100006980090002240212046019B00F046FCDC
:101F2000002802D0032092E703E02020A0670020D1
:101F30008DE702208BE700BFFEE701688969022276
:101F400011404908002902D000210268916201680D
:101F50008969C907C90F012251405140002904D1A4
:101F600001688969114302689161704770B5044640
:101F70000D46164620688069102108400009002897
:101F80003FD018E0681C002815D0FEF75BFD801BD1
:101F9000A84201D8002D0ED1606C20210843606456
:101FA0004120015500214220015500BF402001552C
:101FB00000BF012070BD20688069202108404009D1
:101FC0000028DFD010202168C86120202168C86166
:101FD0002046FFF7B2FF206840680B49084021689F
:101FE0004860606C04210843606420214120015551
:101FF00000214220015500BF4020015500BF0120B3
:10200000D8E70020D6E7000000E800FEFFB581B069
:10201000044615461E460A9F1B48F2B2C3020090B2
:102020002046029900F032F8394620460B9A00F01B
:10203000FAF8002802D0012005B0F0BD012E03D12E
:10204000E8B22168886211E0FF20000228400012F7
:1020500021688862394620460B9A00F0E4F800288F
:1020600001D00120E8E7E8B2216888620B983B467E
:10207000002280210090204600F024F8002801D0A2
:102080000120D9E70020D7E700200080F0B50468E0
:102090006568059C640D0126B6023440084E26434F
:1020A0002C46B4438D05AD0D1604FF273F043E407A
:1020B00035431D43059E35432C4305686C60F0BDD8
:1020C000FF63FF03F8B504460E4617461D4619E0A8
:1020D000681C002816D0FEF7B5FC0699401AA842E5
:1020E00001D8002D0ED1606C20210843606441208E
:1020F000015500214220015500BF4020015500BF7D
:102100000120F8BD206880693040B04201D1012033
:1021100000E00020B842DBD00020F2E770B50446B2
:102120000D46164646E0324629462046FFF71EFF7A
:10213000002801D0012070BD20688069202108405E
:102140004009002822D020688069042108408008C6
:10215000002804D0208D002801D00020EBE72020AB
:102160002168C861206840681749084021684860B4
:1021700000206064202141200155002142200155AA
:1021800000BF4020015500BF0120D4E7FEF75AFCF4
:10219000801BA84201D8002D0CD1606C202108437F
:1021A00060644120015500BF00214020015500BF5F
:1021B0000120C0E7206880690421084080080028C9
:1021C000B1D00020B7E7000000E800FE70B504467B
:1021D0000D4616461EE0324629462046FFF7C6FE4B
:1021E000002801D0012070BDFEF72CFC801BA84206
:1021F00001D8002D0ED1606C20210843606441207D
:10220000015500214220015500BF4020015500BF6B
:102210000120E8E720688069202108404009002863
:10222000D9D00020DFE770B504460D46164621E000
:10223000324629462046FFF799FE002801D00120AA
:1022400070BD681C002815D0FEF7FCFB801BA8425F
:1022500001D8002D0ED1606C20210843606441201C
:10226000015500214220015500BF4020015500BF0B
:102270000120E5E720688069022108404008002825
:10228000D6D00020DCE7000000B587B0142102A8FA
:10229000FDF7A0FF00BF18484069012189040843E9
:1022A00015494861084640690121890408400190A8
:1022B00000BF00BF00BF10484069491008430E49E5
:1022C000486108464069012149040840019000BF67
:1022D00000BF012249110948FEF7AEFB01200003AF
:1022E00002900120039000200490059002A9034869
:1022F000FEF7A6FA07B000BD001002400004004837
:1023000010B513481349086013484860002111486C
:1023100081600121C1600021016141618161C16170
:102320000162FEF705FC002801D0FEF787FA0021C4
:102330000848FEF78DFB002801D0FEF77FFA002148
:102340000448FEF7BCFB002801D0FEF777FA10BD69
:10235000005400402C0000200E09002010B5084851
:10236000084908600020486007490648C16081604C
:10237000FEF7C8FE002801D0FEF760FA10BD00008D
:102380000030004078000020FF0F000010B50E481C
:102390000E4908604B20C001486000210B48816055
:1023A000C16001610C21416100218161C161016253
:1023B0000020064948620846FFF7BCFC002801D00F
:1023C000FEF73CFA10BD00000038014088000020F4
:1023D00070477047704710B5FEF7D2FE10BD00B5CC
:1023E00099B034210CA8FDF7F5FE00200890099063
:1023F0000A900B901C2101A8FDF7ECFE0A200C901E
:1024000001200F90102010900120139000201590B3
:102410000CA8FFF755F9002801D0FEF70FFA0720A6
:102420000890002009900A900B90002108A8FEF760
:10243000E9FF002801D0FEF701FA212001900020D9
:102440000390059001A8FEF70BFF002801D0FEF7CE
:10245000F5F919B000BD7047818CC907C90F002973
:1024600008D001684968012252049143826A1143ED
:10247000026851600222416A1140022907D10168B5
:102480004968D2039143C26A114302685160042231
:10249000416A1140042907D1016849681204914337
:1024A000026B1143026851600822416A11400829F9
:1024B00007D10168496812039143426B11430268D6
:1024C00051601022416A1140102907D101688968C2
:1024D00012029143826B1143026891602022416A8B
:1024E0001140202907D10168896812029143C26B0B
:1024F0001143026891604022416A1140402915D180
:102500000168496892039143026C1143026851606B
:1025100001221205016C914208D101684968032229
:1025200052059143426C1143026851608022416A16
:102530001140802907D10168496812039143826CD8
:10254000114302685160704738B50446002180206D
:102550000151FEF777FA0546206800680821084017
:1025600008280BD114482B460022890400902046ED
:1025700000F01CF9002801D0032038BD2068006855
:102580000421084004280BD10B482B4600220905E2
:102590000090204600F00AF9002801D00320ECE763
:1025A0002020A067E0670020206600BF0021742083
:1025B000015500BF0020E0E7FFFFFF01FEB5044624
:1025C000002000902169A068084361690843E1691F
:1025D00008430290206800686C490840029908434B
:1025E0002168086020684068032109038843E16886
:1025F000084321684860A0690290206A0299084354
:102600000290206880680B210902884302990843E0
:102610002168886000BF5E492068884217D15D4804
:10262000006B8007800F002806D0012808D0022800
:1026300008D0032808D101E0002507E0022505E0C5
:10264000042503E0082501E0102500BF2BE05249D6
:10265000206888421AD14F48006B032109040840C2
:10266000002808D001210904401A08D0401A08D0D7
:10267000401A08D101E0002507E0022505E0042505
:1026800003E0082501E0102500BF0CE04349206865
:10269000884201D1002506E041492068884201D1E5
:1026A000002500E0102500BF0121C903E069884230
:1026B00039D1002D06D0022D08D0042D08D0082DC8
:1026C0000DD109E0FEF766FF06460CE0354E0AE044
:1026D000FEF772FF064606E00126F60303E0002639
:1026E0000120009000BF00BF002E49D07200636837
:1026F0005B08D0186168FDF7FDFC87B2102F0FD37F
:10270000294887420CD828480F38384001903807AC
:10271000400F01990843019001982168C8602FE09B
:10272000012000902CE0002D06D0022D08D0042DB1
:1027300008D0082D0DD109E0FEF72CFF06460CE06D
:10274000184E0AE0FEF738FF064606E00126F603BB
:1027500003E000260120009000BF00BF002E0FD034
:1027600061684A089019FDF7C5FC87B2102F05D3A0
:102770000D48874202D82068C76001E00120009020
:1027800000206066A0660098FEBD0000F369FFEFC0
:102790000038014000100240004400400048004062
:1027A000004C004000127A00FFFF0000FFB581B02E
:1027B00004460D4617460A9E4CE0701C002849D07E
:1027C000FEF740F90499401AB04201D8002E17D103
:1027D00020680068FF21A1318843216808602068D3
:1027E000806840084000216888602020A067E0677A
:1027F00000BF00217420015500BF032005B0F0BDCB
:102800002068006804210840002823D02068C0699F
:1028100049020840C00A00281CD008462168086206
:1028200020680068FF21A131884321680860206882
:10283000806840084000216888602020A067E06729
:1028400020218020015100BF00217420015500BFCC
:102850000320D3E72068C0692840A84201D10120A5
:1028600000E00020B842A8D00020C7E70FB410B5A0
:1028700004A9074B02AA039800F042F9044602A9F2
:10288000002000F0DBFC204610BC08BC04B0184758
:102890003D3200082021020C01D010211046020A0E
:1028A00001D010460839020901D01046091F8208DC
:1028B00001D01046891E420801D0881E7047081AB0
:1028C0007047F8B582B28BB2040C0D0C1046584319
:1028D000002126465E43370C36048019794116469E
:1028E0006E43370C36048019794126466E438919A8
:1028F000F8BD000010B5002819DB1A4A03231B029B
:10290000D21883089B00D2588307DC0EFF23A34014
:102910009A438B071B0E8407E40EA3401A43114B06
:10292000032424021B198408A4001A5118E00E4A3B
:1029300003071B0F083B9B089B00D2588307DC0E44
:10294000FF23A3409A438B071B0E8407E40EA3408A
:102950001A43054B0407240F083CA408A4001A518D
:1029600010BD000000E100E01CED00E002E008C83E
:10297000121F08C1002AFAD170477047002001E0F9
:1029800001C1121F002AFBD170470000F0B51FB42F
:1029900086B00998089A030D0021024314D05148CB
:1029A000514A1818504305141198012810981AD04C
:1029B000281A401C00264D4F4D4900960191049065
:1029C000002812DA444211E01198012449A3012899
:1029D00001D11098C1430698119A84600360C260C7
:1029E00041600BB0F0BD4042E4E704462105002001
:1029F0003F4A001C51410391029012E0E00707D0CA
:102A000032463B4601990098FDF7A4FC01910090E5
:102A100032463B4610461946FDF79CFC06460F46DB
:102A20006410002CEAD10498039B0028029A0999AB
:102A3000089806DAFDF78EFC019B009AFDF78AFCE8
:102A400005E0FDF7EFFC019B009AFDF7EBFC044667
:102A50000E460022284BFDF7CBFE03D80020C043D2
:102A6000014607E00022254B20463146FDF7BEFB1C
:102A7000FDF79EFE102409E0002C0ADB0A22002349
:102A8000FDF74EFB079B30321A55641E02460A437F
:102A9000F2D11122641C079B121B1C19119B012BE4
:102AA00003D0012308430ED10AE0084304D01120CB
:102AB00010900020119077E71098151A6D1E0BE00A
:102AC0001098824202DD00236D1C03E0824201DA8D
:102AD00000236D1E002BEED0069811998260C16014
:102AE00030C07EE701FCFFFF104D000000001440E5
:102AF0000000F03F300000000000F0430000E03F25
:102B0000FFB597B0064600251BE2252876D10024A4
:102B10002746F749049400E00443761C32780120EC
:102B2000203A90400842F7D130782A280ED002226D
:102B3000307801463039092916D804990A235943B7
:102B4000303940181443761C0490F1E7189802C8F5
:102B500004911890002904DA0120400304434842FC
:102B6000049002200443761C30782E2814D10420CF
:102B700004437078761C2A2809D11898761C80C8DE
:102B8000189009E00A214F43303FC719761C30786E
:102B9000014630390929F5D930786C2810D006DC87
:102BA0004C281AD068280ED06A2817D104E074285F
:102BB00013D07A2812D110E00120400504430CE024
:102BC0000121090501E0032109050C4371788142C7
:102BD00003D1012000052418761C761C3078662865
:102BE0000BD013DC58287DD009DC00287BD0452889
:102BF000F6D04628F4D047281AD1A9E118E0632876
:102C000035D0642870D0652812D1A1E170286CD02D
:102C100008DC6728F1D069287DD06E280DD06F2898
:102C200006D1BCE073282ED0752873D0782859D0EF
:102C30001A9A199990476D1C82E16002400F022890
:102C400009D003280DD00428189801680DD00D6014
:102C5000001D189074E11898EA1701680D604A6029
:102C6000F6E7189801680D80F2E70D70F0E7189804
:102C70006A4601781172001D18900020507202A857
:102C80000090012005E0189802C8189000200091DB
:102C9000C04361070ED5002101E00199491C019153
:102CA000B94213DA8142F8DB019A0099895C002964
:102CB000F3D10BE0002101E00199491C019181420F
:102CC000FADB019A0099895C0029F5D101990498F1
:102CD0001A9B471A21463846199A00F099FA40196A
:102CE000019903E051E030E115E050E0451807E0BC
:102CF000009800990078491C00911A9A19999047F8
:102D00000198401E0190401CF2D1214638461A9B82
:102D1000199A12E137E00A20002100900191600227
:102D2000410F022907D0189A01CA1892C217944677
:102D3000032908D00AE01898C01DC108C90005C9B8
:102D40001891944607E000B2C2179446042902D1B4
:102D500040B2C1178C4600226146944506DA0A4605
:102D60000021404291418C462D2102E0210504D5ED
:102D70002B216A461173012103E0E10701D02021D4
:102D8000F7E7029156E00A200AE0102008E0102040
:102D900000900021042004430191082703E008204B
:102DA0000021019100906002410F022907D0189A7A
:102DB00001CA189200229446032908D008E0189806
:102DC000C01DC108C90005C91891944603E080B22E
:102DD000042900D1C0B20021029121072AD53178FF
:102DE0000D91702906D0009A1021019B4A401A4388
:102DF00005D00EE040216A461173012108E06146CA
:102E0000014306D030216A4611730D995173022196
:102E10000291009A0821019B4A401A430AD1614657
:102E2000014301D1610705D530216A4611730121A3
:102E30007F1E02913178582904D02EA10E910DA940
:102E40000D910DE030A1F9E76146019B009AFDF775
:102E500067F90E9B8C469B5C0D9A521E0D92137067
:102E600061460143F0D10D9805A9081A2030019060
:102E7000600703D501200004844300E00127019886
:102E8000874201DD381A00E00020019900904118C6
:102E9000029809180498401A0490E00306D42146C9
:102EA0001A9B199A049800F0B3F94519002706E017
:102EB00003A81A9AC05D199990476D1C7F1C02984F
:102EC0008742F5DBE0030CD521461A9B199A04983A
:102ED00000F09EF9451904E01A9A3020199990479C
:102EE0006D1C0099481E00900029F5DC1FE00000D1
:102EF00009280100303132333435363738396162D0
:102F00006364656600000000303132333435363793
:102F10003839414243444546000000000D980D9960
:102F20000078491C0D911A9A199990476D1C0199C6
:102F3000481E01900029F1DC4DE100F059F94519D6
:102F4000761C3078002800D0DFE528461BB0F0BDA5
:102F5000600700D406271898C01DC108C90048683A
:102F60000A680831C30FDB071891190001D09CA132
:102F700008E0210501D59BA104E0E10701D09AA159
:102F800000E09AA14300109130785B0865280CD0CE
:102F900006DC452809D046281DD0472841D141E00C
:102FA000662818D067283CD13CE00021112F01DBB6
:102FB000112000E0781C0191009008A911A8FFF7EA
:102FC000E5FC139905910021119A15927F1C129826
:102FD0000197009150E00120C0070390012001906B
:102FE00008A9009711A8FFF7D1FC139A149905922C
:102FF0000022119B009212981593059A01920029C4
:1030000001D0104602E0791C40180190381A01D511
:10301000019804E04042401E0090781C0190C01BC3
:10302000029043E0012F00DA01270021112F01DD7A
:10303000112000E038460191009008A911A8FFF77F
:10304000A5FC13990591119A0021129815920091EF
:10305000019721070CD40599B94201DB019900E0E1
:103060000191012904DD159A491E515C302906D0D1
:10307000B84201DA011D05DA0121029115E001993A
:10308000491EEDE7002805DC0099411800910199DF
:10309000091A03E0019A411C914200DD0191009957
:1030A000401A401C02900120C0070390200706D45C
:1030B00002990198814202DB0020C0430290002067
:1030C0006946C87707AF012103980337C9078842CB
:1030D00024D0022011902B201290039800280CDAA3
:1030E000404203902D20129007E00A210398FDF73B
:1030F00001F830317F1E039039701199481E1190EC
:103100000029F2DC03980028EFD1791E129808708C
:103110003078202108404530BF1E387006A8C01BFB
:10312000C01D039010980078002800D0012001995C
:1031300041180298C0170918039809180498401AF2
:10314000401E0490E00306D421461A9B199A049865
:1031500000F05EF8451910980078002803D01A9AFC
:10316000199990476D1CE00324D521461A9B199AA2
:10317000049800F04DF845191CE00098002807DB82
:1031800000990598884203DD1598405C199901E083
:10319000199930201A9A904700986D1C401C009095
:1031A0000298401E0290002804D11A9A2E201999E4
:1031B00090476D1C0199481E01900029DDDC05E057
:1031C00038781A9A7F1C199990476D1C0399481EEC
:1031D00003900029F4DC21461A9B199A0498ACE666
:1031E0002D0000002B000000200000000000000067
:1031F000F8B5044600251E461746880404D405E0A9
:1032000039462020B0476D1C641EF9D52846F8BD0C
:10321000FFB50446002581B01E46C80301D53027FE
:1032200000E02027880404D505E038460399B0471C
:103230006D1C641EF9D5284605B0F0BD0A68531C04
:103240000B60107070470000F1B58EB000F048F9C7
:103250008E480068FDF75EF90646002201239B07B1
:10326000FDF7E0F804460022894BFDF764F80D9164
:103270000C9088490020085EFDF74CF906460F4681
:103280000C9A10460D9B1946FDF764F832463B46F2
:1032900007910690FDF75EF8044600227E4BFDF78D
:1032A000C1F80B910A907D490020085EFDF732F9C4
:1032B000079106900D9B0C9AFDF74CF806460022EC
:1032C00001239B07FDF746F804460B9B0A9AFCF77F
:1032D0008DFF0B910A9072490020085EFDF71AF9E4
:1032E000064600226F4BFDF735F804460D460022D6
:1032F0006D4B0B990A98FDF795F822462B460791DE
:103300000690FCF773FF0B910A9068490020085E55
:10331000FDF700F904460D9B0C9AFDF71BF805918B
:10332000049063490020085EFDF7F4F804460D9B05
:103330000C9AFDF70FF806460D9B0C9AFDF70AF85C
:1033400000225C4B01910090FDF76CF80391029014
:10335000059B049AFCF74AFF0022564B0791069002
:10336000FDF760F80D910C9053480088FDF7E6F8E2
:1033700006460F460022484B0D990C98FDF752F86F
:10338000044600224D4BFCF731FF32463B46079185
:103390000690FCF7DFFF0D910C90002213460D996B
:1033A0000C98FDF711F902D100200FB0F0BD0E9876
:1033B000FDF7B0F804460022414BFCF7C2FF09912B
:1033C000089000223F4B0B990A98FDF72BF8064610
:1033D000099B089AFCF7B5FF044600223A4BFCF71C
:1033E000B9FF079106900D9B0C9AFDF71BF8099108
:1033F000089036490020085EFDF78CF80446099BCA
:10340000089AFCF7A7FF07910690099B089AFCF71A
:10341000A1FF064600222E4BFDF704F80D910C90FB
:103420002C490020085EFDF775F80646099B089AAE
:10343000FCF790FF04460022174BFCF7F3FF0B91BB
:103440000A9025490020085EFDF764F80591049074
:103450000B9B0A9A0D990C98FCF7C8FE0446059B35
:10346000049AFCF7C3FE064600221C4BFCF7DAFF69
:1034700007910690099B089AFCF7B8FE09910890FD
:1034800009990898FDF7B4F88FE7000000000020C4
:103490000040EF40140000200000E0401200002037
:1034A000100000200000F040000010400C00002040
:1034B0000E00002000002041060000200000F03F28
:1034C000000030410000B040006AB8401A000020FF
:1034D0000000E041180000201600002000003040ED
:1034E00000B59DB076201C9000201B901A9088217A
:1034F000199189211891142000901C9840000123F3
:1035000018AA01460190FE48FDF732FC14200090F5
:103510001C98400001231AAA013201460190F84884
:10352000FDF770FB142000901C984000012319AA9D
:1035300001460190F248FDF71BFC142000901C98F6
:10354000400001231AAA01460190ED48FDF75AFBFD
:1035500018A8407A010218A8007A01431B911B9811
:1035600000F0B0FCE74908808A2117918B21169161
:10357000142000901C984000012316AA01460190D7
:10358000DF48FDF7F5FB142000901C984000012354
:103590001AAA013201460190D948FDF733FB1420E5
:1035A00000901C984000012317AA01460190D448BE
:1035B000FDF7DEFB142000901C98400001231AAA9E
:1035C00001460190CE48FDF71DFB18A8407A010284
:1035D00018A8007A01431B9118A8407A010218A884
:1035E000007A0843019000F06DFC00B2C6490880E3
:1035F0008C2115918D211491142000901C9840006D
:10360000012314AA01460190BD48FDF7B1FB142027
:1036100000901C98400001231AAA01320146019033
:10362000B748FDF7EFFA142000901C9840000123E2
:1036300015AA01460190B248FDF79AFB14200090AC
:103640001C98400001231AAA01460190AC48FDF7DE
:10365000D9FA18A8407A010218A8007A01431B91F0
:1036600018A8407A010218A8007A0843019000F0D7
:1036700029FC00B2A54908808E2113918F21129157
:10368000142000901C984000012312AA01460190CA
:103690009B48FDF76DFB142000901C98400001230F
:1036A0001AAA0132014601909548FDF7ABFA1420A1
:1036B00000901C984000012313AA014601909048F5
:1036C000FDF756FB142000901C98400001231AAA15
:1036D000014601908A48FDF795FA18A8407A010240
:1036E00018A8007A01431B9118A8407A010218A873
:1036F000007A0843019000F0E5FB8549088090219D
:10370000119191211091142000901C9840000123E8
:1037100010AA014601907A48FDF72AFB1420009078
:103720001C98400001231AAA0132014601907448F6
:10373000FDF768FA142000901C984000012311AA9C
:10374000014601906E48FDF713FB142000901C9871
:10375000400001231AAA014601906948FDF752FA78
:1037600018A8407A010218A8007A01431B9118A8F2
:10377000407A000218A9097A0843019000F0A2FBE0
:1037800000B26449088092210F9193210E91142078
:1037900000901C98400001230EAA01460190584851
:1037A000FDF7E6FA142000901C98400001231AAAA5
:1037B0000132014601905248FDF724FA142000908E
:1037C0001C98400001230FAA014601904C48FDF7C8
:1037D000CFFA142000901C98400001231AAA014639
:1037E00001904748FDF70EFA18A8407A010218A880
:1037F000007A01431B9118A8407A010218A8007AA8
:103800000843019000F05EFB00B243490880942118
:103810000D9195210C91142000901C9840000123DB
:103820000CAA014601903648FDF7A2FA1420009038
:103830001C98400001231AAA013201460190304829
:10384000FDF7E0F9142000901C98400001230DAA18
:10385000014601902A48FDF78BFA142000901C982D
:10386000400001231AAA014601902548FDF7CAF934
:1038700018A8407A010218A8007A01431B9118A8E1
:10388000407A010218A8007A0843019000F01AFB60
:1038900000B22249088096210B9197210A911420A9
:1038A00000901C98400001230AAA01460190144888
:1038B000FDF75EFA142000901C98400001231AAA1C
:1038C0000132014601900E48FDF79CF9142000904A
:1038D0001C98400001230BAA014601900848FDF7FF
:1038E00047FA142000901C98400001231AAA0146B0
:1038F00001900348FDF786F918A8407A01020FE00D
:103900002C00002004000020080000200A000020F5
:10391000060000200C0000200E00002010000020F7
:1039200018A8007A01431B9118A8407A010218A830
:10393000007A0843019000F0C5FA00B28949088076
:103940009821099199210891142000901C98400019
:10395000012308AA014601908348FDF709FA1420C3
:1039600000901C98400001231AAA013201460190E0
:103970007D48FDF747F9142000901C984000012372
:1039800009AA014601907848FDF7F2F91420009049
:103990001C98400001231AAA014601907248FDF7C5
:1039A00031F918A8407A010218A8007A01431B9146
:1039B00018A8407A010218A8007A0843019000F084
:1039C00081FA00B2694908809A2107919B210691EA
:1039D000142000901C984000012306AA0146019083
:1039E0006148FDF7C5F9142000901C9840000123A0
:1039F0001AAA0132014601905B48FDF703F9142031
:103A000000901C984000012307AA014601905648E7
:103A1000FDF7AEF9142000901C98400001231AAA6B
:103A2000014601905048FDF7EDF818A8407A0102D0
:103A300018A8007A01431B9118A8407A010218A81F
:103A4000007A0843019000F03DFA00B2484908802E
:103A50009C2105919D210491142000901C98400008
:103A6000012304AA014601903F48FDF781F9142083
:103A700000901C98400001231AAA013201460190CF
:103A80003948FDF7BFF8142000901C98400001232E
:103A900005AA014601903448FDF76AF91420009008
:103AA0001C98400001231AAA014601902E48FDF7F8
:103AB000A9F818A8407A010218A8007A01431B91BE
:103AC00018A8407A010218A8007A0843019000F073
:103AD000F9F900B2274908809E2103919F210291A4
:103AE000142000901C984000012302AA0146019076
:103AF0001D48FDF73DF9142000901C98400001235B
:103B00001AAA0132014601901748FDF77BF81420EC
:103B100000901C984000012303AA0146019012481E
:103B2000FDF726F9142000901C98400001231AAAE2
:103B3000014601900C48FDF765F818A8407A01028B
:103B400018A8007A01431B9118A8407A000218A90E
:103B5000097A0843019000F0B5F900B206490880DF
:103B60001DB000BD120000202C0000201400002019
:103B700016000020180000201A000020F1B590B0B7
:103B8000FFF7AEFC49490020085EFCF7C3FC099131
:103B9000089047480088FCF7D1FC04460022454BBA
:103BA000FCF740FC059104901098FCF7B3FC044628
:103BB0000022414BFCF736FC0646059B049AFCF7B5
:103BC000BAFB07910690099B089AFCF7C3FB0F917B
:103BD0000E903A490020085EFCF79CFC0991089081
:103BE00033480088FCF7AAFC04460022344BFCF75B
:103BF00019FC06460F461098FCF78CFC0446002280
:103C000041231B06FCF70EFC32463B460191009017
:103C1000FCF791FB0591049025480088FCF78EFC89
:103C200004460022264BFCF7FDFB06460F46109883
:103C3000FCF770FC0446002241231B06FCF7F2FB54
:103C400032463B4601910090FCF775FB03910290D0
:103C5000059B049AFCF77EFB07910690099B089A46
:103C6000FCF778FB0D910C900D9B0C9A0F990E9818
:103C7000FCF7BCFA0446FCF76FFC124908600D9B88
:103C80000C9A0F990E98FCF7B1FA0B910A9000224A
:103C90000D4B0B990A98FCF7C5FB0B910A900B99F9
:103CA0000A98FCF7A5FC11B0F0BD00000800002048
:103CB00004000020000090400000D0400A000020D6
:103CC0000000C040000000200000B4403EB5F721D5
:103CD00002910020019000240A20012302AAEC2175
:103CE00000900C48FDF744F80A20032301AAEC21B8
:103CF00000900848FCF786FF684600790403684690
:103D00004079000104436846807900090443204655
:103D10003EBD00002C0000203EB5FA21029100209B
:103D2000019000240A20012302AAEC2100900C48F3
:103D3000FDF71EF80A20032301AAEC210090084891
:103D4000FCF760FF6846007904036846407900018B
:103D50000443684680790009044320463EBD0000C4
:103D60002C00002096B0FDF717FAFEF738FBFEF79F
:103D70008BFAFEF7C5FAFEF7F1FAFEF707FB002112
:103D80001591D02114910A20012314AAEC2100904E
:103D90003C48FCF7EDFF0A20012315AAEC21009016
:103DA0003848FCF72FFF052000F038F9052000F017
:103DB000CDF8052000F0FEF8032000F095F800246F
:103DC000002700200F90109011900C900D900E90F5
:103DD00014222DA107A8FCF7E4F930A30FCB06931A
:103DE00003AB07C300200290FCF72CFE029047E0D3
:103DF000FCF728FE0299401A7D21C90088423CD96F
:103E0000FFF78AFF04462046FFF7B8FE1390139889
:103E1000FCF7C6FB05462A460B4624A10FA8FEF771
:103E200025FD3223122207A92248FEF703F8322388
:103E30000A220FA91F48FDF7FDFFFFF747FF0746BE
:103E40003846FFF701FA12901298FCF7A9FB0546D5
:103E50002A460B4618A10CA8FEF708FD32231022B3
:103E600003A91448FDF7E6FF32230A220CA91148E2
:103E7000FDF7E0FFFCF7E6FD02901148FDF778F949
:103E8000B6E700002C00002054656D706572617407
:103E9000757265205B435D3A2000000050726573C7
:103EA00073757265205B50615D3A200025322E32B9
:103EB000660D0A008800002025362E32660D0A00A5
:103EC000780000200146002200230120C0030840A2
:103ED000C213002A06D0C84381B2481C81B24B42AB
:103EE000184670470846FCE710B586B00446F42132
:103EF0000591002104910A20012305AAEC210090DC
:103F00001148FCF735FF0A20012304AAEC21009098
:103F10000D48FCF777FE6846017CFC2001400491C7
:103F20006846017C214304910A20012104AA0B4622
:103F30000092019102906846027DEC210248FCF754
:103F4000CDFF06B010BD00002C00002010B586B0DB
:103F50000446F4210591002104910A20012305AAB9
:103F6000EC2100901248FCF703FF0A20012304AA69
:103F7000EC2100900E48FCF745FE6846017CE320EA
:103F800001400491A1006846007C0143C9B204913C
:103F90000A20012104AA0B46009201910290684672
:103FA000027DEC210248FCF799FF06B010BD00002D
:103FB0002C00002010B586B00446F52105910021A3
:103FC00004910A20012305AAEC2100901248FCF775
:103FD000CFFE0A20012304AAEC2100900E48FCF732
:103FE00011FE6846007CC106C90E04916101684655
:103FF000007C0143C9B204910A20012104AA0B46A6
:104000000092019102906846027DEC210248FCF783
:1040100065FF06B010BD00002C00002010B586B072
:104020000446F4210591002104910A20012305AAE8
:10403000EC2100901248FCF79BFE0A20012304AA01
:10404000EC2100900E48FCF7DDFD6846007CC106BF
:10405000C90E049161016846007C0143C9B2049114
:104060000A20012104AA0B460092019102906846A1
:10407000027DEC210248FCF731FF06B010BD0000C4
:104080002C000020000000000000000001020304DA
:10409000060708090000000001020304BC400008F4
:1040A000000000202C0000006C290008E8400008F7
:1040B0002C000020E40400007C290008000000001F
:1040C00000000000000000000000000000000000F0
:1040D00000000000000000000000000004000000DC
:0840E0000100000000127A004B
:04000005080000C12E
:00000001FF
